{
  "contractName": "CredentialManager",
  "abi": [
    {
      "anonymous": false,
      "inputs": [
        {
          "indexed": false,
          "internalType": "address",
          "name": "issuer",
          "type": "address"
        },
        {
          "indexed": false,
          "internalType": "address",
          "name": "holder",
          "type": "address"
        },
        {
          "indexed": false,
          "internalType": "string",
          "name": "credentialHash",
          "type": "string"
        }
      ],
      "name": "CredentialIssued",
      "type": "event"
    },
    {
      "inputs": [
        {
          "internalType": "address",
          "name": "",
          "type": "address"
        },
        {
          "internalType": "uint256",
          "name": "",
          "type": "uint256"
        }
      ],
      "name": "credentials",
      "outputs": [
        {
          "internalType": "address",
          "name": "issuer",
          "type": "address"
        },
        {
          "internalType": "address",
          "name": "holder",
          "type": "address"
        },
        {
          "internalType": "string",
          "name": "credentialHash",
          "type": "string"
        }
      ],
      "stateMutability": "view",
      "type": "function",
      "constant": true
    },
    {
      "inputs": [
        {
          "internalType": "address",
          "name": "holder",
          "type": "address"
        },
        {
          "internalType": "string",
          "name": "credentialHash",
          "type": "string"
        }
      ],
      "name": "issueCredential",
      "outputs": [],
      "stateMutability": "nonpayable",
      "type": "function"
    }
  ],
  "bytecode": "0x608060405234801561001057600080fd5b50610783806100206000396000f3fe608060405234801561001057600080fd5b50600436106100365760003560e01c806303cb278a1461003b57806390c7c49c1461006d575b600080fd5b610055600480360381019061005091906104c1565b610089565b60405161006493929190610545565b60405180910390f35b6100876004803603810190610082919061046d565b610198565b005b600060205281600052604060002081815481106100a557600080fd5b9060005260206000209060030201600091509150508060000160009054906101000a900473ffffffffffffffffffffffffffffffffffffffff16908060010160009054906101000a900473ffffffffffffffffffffffffffffffffffffffff16908060020180546101159061067e565b80601f01602080910402602001604051908101604052809291908181526020018280546101419061067e565b801561018e5780601f106101635761010080835404028352916020019161018e565b820191906000526020600020905b81548152906001019060200180831161017157829003601f168201915b5050505050905083565b600060405180606001604052803373ffffffffffffffffffffffffffffffffffffffff1681526020018473ffffffffffffffffffffffffffffffffffffffff1681526020018381525090506000808473ffffffffffffffffffffffffffffffffffffffff1673ffffffffffffffffffffffffffffffffffffffff16815260200190815260200160002081908060018154018082558091505060019003906000526020600020906003020160009091909190915060008201518160000160006101000a81548173ffffffffffffffffffffffffffffffffffffffff021916908373ffffffffffffffffffffffffffffffffffffffff16021790555060208201518160010160006101000a81548173ffffffffffffffffffffffffffffffffffffffff021916908373ffffffffffffffffffffffffffffffffffffffff16021790555060408201518160020190805190602001906102f5929190610338565b5050507f5e411fa350dbdf70682c0a3c1115999a6ef7a54143c1a6748b2a0d53da4717fd33848460405161032b93929190610545565b60405180910390a1505050565b8280546103449061067e565b90600052602060002090601f01602090048101928261036657600085556103ad565b82601f1061037f57805160ff19168380011785556103ad565b828001600101855582156103ad579182015b828111156103ac578251825591602001919060010190610391565b5b5090506103ba91906103be565b5090565b5b808211156103d75760008160009055506001016103bf565b5090565b60006103ee6103e9846105b4565b610583565b90508281526020810184848401111561040657600080fd5b61041184828561063c565b509392505050565b6000813590506104288161071f565b92915050565b600082601f83011261043f57600080fd5b813561044f8482602086016103db565b91505092915050565b60008135905061046781610736565b92915050565b6000806040838503121561048057600080fd5b600061048e85828601610419565b925050602083013567ffffffffffffffff8111156104ab57600080fd5b6104b78582860161042e565b9150509250929050565b600080604083850312156104d457600080fd5b60006104e285828601610419565b92505060206104f385828601610458565b9150509250929050565b61050681610600565b82525050565b6000610517826105e4565b61052181856105ef565b935061053181856020860161064b565b61053a8161070e565b840191505092915050565b600060608201905061055a60008301866104fd565b61056760208301856104fd565b8181036040830152610579818461050c565b9050949350505050565b6000604051905081810181811067ffffffffffffffff821117156105aa576105a96106df565b5b8060405250919050565b600067ffffffffffffffff8211156105cf576105ce6106df565b5b601f19601f8301169050602081019050919050565b600081519050919050565b600082825260208201905092915050565b600061060b82610612565b9050919050565b600073ffffffffffffffffffffffffffffffffffffffff82169050919050565b6000819050919050565b82818337600083830152505050565b60005b8381101561066957808201518184015260208101905061064e565b83811115610678576000848401525b50505050565b6000600282049050600182168061069657607f821691505b602082108114156106aa576106a96106b0565b5b50919050565b7f4e487b7100000000000000000000000000000000000000000000000000000000600052602260045260246000fd5b7f4e487b7100000000000000000000000000000000000000000000000000000000600052604160045260246000fd5b6000601f19601f8301169050919050565b61072881610600565b811461073357600080fd5b50565b61073f81610632565b811461074a57600080fd5b5056fea264697066735822122032b5f5988bf787e6a4e416dfb2a384bbca219448a82f5ec1b103a9af5cbf34a464736f6c63430008000033",
  "immutableReferences": {},
  "source": "// contracts/CredentialManager.sol\r\npragma solidity ^0.8.0;\r\n\r\ncontract CredentialManager {\r\n    struct Credential {\r\n        address issuer;\r\n        address holder;\r\n        string credentialHash;\r\n    }\r\n\r\n    mapping(address => Credential[]) public credentials;\r\n\r\n    event CredentialIssued(address issuer, address holder, string credentialHash);\r\n\r\n    function issueCredential(address holder, string memory credentialHash) public {\r\n        Credential memory newCredential = Credential(msg.sender, holder, credentialHash);\r\n        credentials[holder].push(newCredential);\r\n        emit CredentialIssued(msg.sender, holder, credentialHash);\r\n    }\r\n}\r\n",
  "sourcePath": "C:\\Users\\dhruv\\Desktop\\Mid term Project\\blockchain-identity-managment\\contracts\\CredentialManager.sol",
  "compiler": {
    "name": "solc",
    "version": "0.8.0+commit.c7dfd78e.Emscripten.clang"
  },
  "schemaVersion": "3.4.16",
  "updatedAt": "2024-11-23T08:14:06.359Z",
  "networkType": "ethereum",
  "devdoc": {
    "kind": "dev",
    "methods": {},
    "version": 1
  },
  "userdoc": {
    "kind": "user",
    "methods": {},
    "version": 1
  }
}