{
  "contractName": "UserRegistry",
  "abi": [
    {
      "inputs": [],
      "stateMutability": "nonpayable",
      "type": "constructor"
    },
    {
      "inputs": [
        {
          "internalType": "string",
          "name": "name",
          "type": "string"
        }
      ],
      "name": "registerUser",
      "outputs": [],
      "stateMutability": "nonpayable",
      "type": "function"
    },
    {
      "inputs": [
        {
          "internalType": "address",
          "name": "userAddress",
          "type": "address"
        }
      ],
      "name": "getUserName",
      "outputs": [
        {
          "internalType": "string",
          "name": "",
          "type": "string"
        }
      ],
      "stateMutability": "view",
      "type": "function",
      "constant": true
    }
  ],
  "bytecode": "0x608060405234801561001057600080fd5b50610389806100206000396000f3fe608060405234801561001057600080fd5b50600436106100365760003560e01c8063704f1b941461003b578063d84f55ee14610057575b600080fd5b6100556004803603810190610050919061016f565b610087565b005b610071600480360381019061006c9190610146565b61008a565b60405161007e91906101e9565b60405180910390f35b50565b60606040518060400160405280600b81526020017f506c616365686f6c6465720000000000000000000000000000000000000000008152509050919050565b60006100dc6100d78461023c565b61020b565b9050828152602081018484840111156100f457600080fd5b6100ff8482856102ba565b509392505050565b6000813590506101168161033c565b92915050565b600082601f83011261012d57600080fd5b813561013d8482602086016100c9565b91505092915050565b60006020828403121561015857600080fd5b600061016684828501610107565b91505092915050565b60006020828403121561018157600080fd5b600082013567ffffffffffffffff81111561019b57600080fd5b6101a78482850161011c565b91505092915050565b60006101bb8261026c565b6101c58185610277565b93506101d58185602086016102c9565b6101de8161032b565b840191505092915050565b6000602082019050818103600083015261020381846101b0565b905092915050565b6000604051905081810181811067ffffffffffffffff82111715610232576102316102fc565b5b8060405250919050565b600067ffffffffffffffff821115610257576102566102fc565b5b601f19601f8301169050602081019050919050565b600081519050919050565b600082825260208201905092915050565b60006102938261029a565b9050919050565b600073ffffffffffffffffffffffffffffffffffffffff82169050919050565b82818337600083830152505050565b60005b838110156102e75780820151818401526020810190506102cc565b838111156102f6576000848401525b50505050565b7f4e487b7100000000000000000000000000000000000000000000000000000000600052604160045260246000fd5b6000601f19601f8301169050919050565b61034581610288565b811461035057600080fd5b5056fea264697066735822122065de31203980aea415fca706f3dca94d8abad842cd18ee7c02435484fe12376e64736f6c63430008000033",
  "immutableReferences": {},
  "source": "// SPDX-License-Identifier: UNLICENSED\r\npragma solidity ^0.8.0;\r\n\r\ncontract UserRegistry {\r\n    // Constructor with no logic for debugging\r\n    constructor() {\r\n    }\r\n\r\n    function registerUser(string memory name) public {\r\n        // Only a simple function to test contract deployment\r\n    }\r\n\r\n    function getUserName(address userAddress) public view returns (string memory) {\r\n        // Return a placeholder name to check contract functionality\r\n        return \"Placeholder\";\r\n    }\r\n}\r\n\r\n",
  "sourcePath": "C:\\Users\\dhruv\\Desktop\\Mid term Project\\blockchain-identity-managment\\contracts\\UserRegistry.sol",
  "compiler": {
    "name": "solc",
    "version": "0.8.0+commit.c7dfd78e.Emscripten.clang"
  },
  "schemaVersion": "3.4.16",
  "updatedAt": "2024-11-23T08:14:06.356Z",
  "networkType": "ethereum",
  "devdoc": {
    "kind": "dev",
    "methods": {},
    "version": 1
  },
  "userdoc": {
    "kind": "user",
    "methods": {},
    "version": 1
  }
}