{
  "contractName": "VerificationManager",
  "abi": [
    {
      "inputs": [],
      "stateMutability": "nonpayable",
      "type": "constructor"
    },
    {
      "anonymous": false,
      "inputs": [
        {
          "indexed": false,
          "internalType": "address",
          "name": "holder",
          "type": "address"
        },
        {
          "indexed": false,
          "internalType": "address",
          "name": "verifier",
          "type": "address"
        }
      ],
      "name": "VerificationApproved",
      "type": "event"
    },
    {
      "anonymous": false,
      "inputs": [
        {
          "indexed": false,
          "internalType": "address",
          "name": "verifier",
          "type": "address"
        },
        {
          "indexed": false,
          "internalType": "address",
          "name": "holder",
          "type": "address"
        }
      ],
      "name": "VerificationRequested",
      "type": "event"
    },
    {
      "inputs": [],
      "name": "admin",
      "outputs": [
        {
          "internalType": "address",
          "name": "",
          "type": "address"
        }
      ],
      "stateMutability": "view",
      "type": "function",
      "constant": true
    },
    {
      "inputs": [
        {
          "internalType": "address",
          "name": "",
          "type": "address"
        },
        {
          "internalType": "uint256",
          "name": "",
          "type": "uint256"
        }
      ],
      "name": "verificationRequests",
      "outputs": [
        {
          "internalType": "address",
          "name": "verifier",
          "type": "address"
        },
        {
          "internalType": "address",
          "name": "holder",
          "type": "address"
        },
        {
          "internalType": "bool",
          "name": "isApproved",
          "type": "bool"
        }
      ],
      "stateMutability": "view",
      "type": "function",
      "constant": true
    },
    {
      "inputs": [
        {
          "internalType": "address",
          "name": "holder",
          "type": "address"
        }
      ],
      "name": "requestVerification",
      "outputs": [],
      "stateMutability": "nonpayable",
      "type": "function"
    },
    {
      "inputs": [
        {
          "internalType": "uint256",
          "name": "index",
          "type": "uint256"
        }
      ],
      "name": "approveVerification",
      "outputs": [],
      "stateMutability": "nonpayable",
      "type": "function"
    },
    {
      "inputs": [
        {
          "internalType": "uint256",
          "name": "index",
          "type": "uint256"
        }
      ],
      "name": "approveVerificationByAdmin",
      "outputs": [],
      "stateMutability": "nonpayable",
      "type": "function"
    }
  ],
  "bytecode": "0x608060405234801561001057600080fd5b50336000806101000a81548173ffffffffffffffffffffffffffffffffffffffff021916908373ffffffffffffffffffffffffffffffffffffffff160217905550610956806100606000396000f3fe608060405234801561001057600080fd5b50600436106100575760003560e01c80630bf98bc61461005c578063130c8ce614610078578063dde38816146100aa578063f0618ef8146100c6578063f851a440146100e2575b600080fd5b610076600480360381019061007191906106f1565b610100565b005b610092600480360381019061008d91906106b5565b610295565b6040516100a193929190610822565b60405180910390f35b6100c460048036038101906100bf91906106f1565b610329565b005b6100e060048036038101906100db919061068c565b6104a0565b005b6100ea61063e565b6040516100f791906107de565b60405180910390f35b60008054906101000a900473ffffffffffffffffffffffffffffffffffffffff1673ffffffffffffffffffffffffffffffffffffffff163373ffffffffffffffffffffffffffffffffffffffff161461018e576040517f08c379a000000000000000000000000000000000000000000000000000000000815260040161018590610859565b60405180910390fd5b6000600160003373ffffffffffffffffffffffffffffffffffffffff1673ffffffffffffffffffffffffffffffffffffffff1681526020019081526020016000208281548110610207577f4e487b7100000000000000000000000000000000000000000000000000000000600052603260045260246000fd5b9060005260206000209060020201905060018160010160146101000a81548160ff0219169083151502179055507f61fde3e0fc0d3d3a622e35d2009c0a7566e87458cd0754a89107e8c99d897f39338260000160009054906101000a900473ffffffffffffffffffffffffffffffffffffffff166040516102899291906107f9565b60405180910390a15050565b600160205281600052604060002081815481106102b157600080fd5b9060005260206000209060020201600091509150508060000160009054906101000a900473ffffffffffffffffffffffffffffffffffffffff16908060010160009054906101000a900473ffffffffffffffffffffffffffffffffffffffff16908060010160149054906101000a900460ff16905083565b338073ffffffffffffffffffffffffffffffffffffffff163373ffffffffffffffffffffffffffffffffffffffff1614610398576040517f08c379a000000000000000000000000000000000000000000000000000000000815260040161038f90610879565b60405180910390fd5b6000600160003373ffffffffffffffffffffffffffffffffffffffff1673ffffffffffffffffffffffffffffffffffffffff1681526020019081526020016000208381548110610411577f4e487b7100000000000000000000000000000000000000000000000000000000600052603260045260246000fd5b9060005260206000209060020201905060018160010160146101000a81548160ff0219169083151502179055507f61fde3e0fc0d3d3a622e35d2009c0a7566e87458cd0754a89107e8c99d897f39338260000160009054906101000a900473ffffffffffffffffffffffffffffffffffffffff166040516104939291906107f9565b60405180910390a1505050565b600160008273ffffffffffffffffffffffffffffffffffffffff1673ffffffffffffffffffffffffffffffffffffffff16815260200190815260200160002060405180606001604052803373ffffffffffffffffffffffffffffffffffffffff1681526020018373ffffffffffffffffffffffffffffffffffffffff16815260200160001515815250908060018154018082558091505060019003906000526020600020906002020160009091909190915060008201518160000160006101000a81548173ffffffffffffffffffffffffffffffffffffffff021916908373ffffffffffffffffffffffffffffffffffffffff16021790555060208201518160010160006101000a81548173ffffffffffffffffffffffffffffffffffffffff021916908373ffffffffffffffffffffffffffffffffffffffff16021790555060408201518160010160146101000a81548160ff02191690831515021790555050507f8f53214f63ea6ccacd06513d7dc3912a70d2a9202663027eeaf727ebb797a05f33826040516106339291906107f9565b60405180910390a150565b60008054906101000a900473ffffffffffffffffffffffffffffffffffffffff1681565b600081359050610671816108f2565b92915050565b60008135905061068681610909565b92915050565b60006020828403121561069e57600080fd5b60006106ac84828501610662565b91505092915050565b600080604083850312156106c857600080fd5b60006106d685828601610662565b92505060206106e785828601610677565b9150509250929050565b60006020828403121561070357600080fd5b600061071184828501610677565b91505092915050565b610723816108aa565b82525050565b610732816108bc565b82525050565b6000610745602383610899565b91507f4f6e6c792061646d696e2063616e20617070726f76652076657269666963617460008301527f696f6e00000000000000000000000000000000000000000000000000000000006020830152604082019050919050565b60006107ab601c83610899565b91507f4f6e6c792074686520686f6c6465722063616e20617070726f76652e000000006000830152602082019050919050565b60006020820190506107f3600083018461071a565b92915050565b600060408201905061080e600083018561071a565b61081b602083018461071a565b9392505050565b6000606082019050610837600083018661071a565b610844602083018561071a565b6108516040830184610729565b949350505050565b6000602082019050818103600083015261087281610738565b9050919050565b600060208201905081810360008301526108928161079e565b9050919050565b600082825260208201905092915050565b60006108b5826108c8565b9050919050565b60008115159050919050565b600073ffffffffffffffffffffffffffffffffffffffff82169050919050565b6000819050919050565b6108fb816108aa565b811461090657600080fd5b50565b610912816108e8565b811461091d57600080fd5b5056fea26469706673582212209bfe296c48025de4de3538e75fd30c570186dfce2633b10d6f51ccfcbd27a62764736f6c63430008000033",
  "immutableReferences": {},
  "source": "// contracts/VerificationManager.sol\r\npragma solidity ^0.8.0;\r\n\r\ncontract VerificationManager {\r\n    address public admin; // Add admin role for secure approvals\r\n\r\n    struct VerificationRequest {\r\n        address verifier;\r\n        address holder;\r\n        bool isApproved;\r\n    }\r\n\r\n    mapping(address => VerificationRequest[]) public verificationRequests;\r\n\r\n    event VerificationRequested(address verifier, address holder);\r\n    event VerificationApproved(address holder, address verifier);\r\n\r\n    modifier onlyAdmin() {\r\n        require(msg.sender == admin, \"Only admin can approve verification\");\r\n        _;\r\n    }\r\n\r\n    modifier onlyHolder(address holder) {\r\n        require(msg.sender == holder, \"Only the holder can approve.\");\r\n        _;\r\n    }\r\n\r\n    constructor() {\r\n        admin = msg.sender; // Set the admin to the contract deployer\r\n    }\r\n\r\n    function requestVerification(address holder) public {\r\n        verificationRequests[holder].push(VerificationRequest(msg.sender, holder, false));\r\n        emit VerificationRequested(msg.sender, holder);\r\n    }\r\n\r\n    function approveVerification(uint index) public onlyHolder(msg.sender) {\r\n        VerificationRequest storage request = verificationRequests[msg.sender][index];\r\n        request.isApproved = true;\r\n        emit VerificationApproved(msg.sender, request.verifier);\r\n    }\r\n\r\n    function approveVerificationByAdmin(uint index) public onlyAdmin {\r\n        VerificationRequest storage request = verificationRequests[msg.sender][index];\r\n        request.isApproved = true;\r\n        emit VerificationApproved(msg.sender, request.verifier);\r\n    }\r\n}\r\n\r\n",
  "sourcePath": "C:\\Users\\dhruv\\Desktop\\Mid term Project\\blockchain-identity-managment\\contracts\\VerificationManager.sol",
  "compiler": {
    "name": "solc",
    "version": "0.8.0+commit.c7dfd78e.Emscripten.clang"
  },
  "schemaVersion": "3.4.16",
  "updatedAt": "2024-11-23T08:14:06.362Z",
  "networkType": "ethereum",
  "devdoc": {
    "kind": "dev",
    "methods": {},
    "version": 1
  },
  "userdoc": {
    "kind": "user",
    "methods": {},
    "version": 1
  }
}